{
  "_format": "hh-sol-artifact-1",
  "contractName": "SimpleSupplyChain",
  "sourceName": "contracts/SimpleSupplyChain.sol",
  "abi": [
    {
      "anonymous": false,
      "inputs": [
        {
          "indexed": true,
          "internalType": "uint256",
          "name": "batchId",
          "type": "uint256"
        },
        {
          "indexed": true,
          "internalType": "address",
          "name": "creator",
          "type": "address"
        },
        {
          "indexed": false,
          "internalType": "string",
          "name": "productType",
          "type": "string"
        }
      ],
      "name": "BatchCreated",
      "type": "event"
    },
    {
      "anonymous": false,
      "inputs": [
        {
          "indexed": true,
          "internalType": "uint256",
          "name": "batchId",
          "type": "uint256"
        },
        {
          "indexed": false,
          "internalType": "enum SimpleSupplyChain.EventType",
          "name": "eventType",
          "type": "uint8"
        },
        {
          "indexed": true,
          "internalType": "address",
          "name": "actor",
          "type": "address"
        },
        {
          "indexed": false,
          "internalType": "string",
          "name": "dataHash",
          "type": "string"
        }
      ],
      "name": "EventRecorded",
      "type": "event"
    },
    {
      "inputs": [
        {
          "internalType": "uint256",
          "name": "",
          "type": "uint256"
        }
      ],
      "name": "batches",
      "outputs": [
        {
          "internalType": "uint256",
          "name": "id",
          "type": "uint256"
        },
        {
          "internalType": "address",
          "name": "creator",
          "type": "address"
        },
        {
          "internalType": "string",
          "name": "productType",
          "type": "string"
        },
        {
          "internalType": "uint256",
          "name": "creationTimestamp",
          "type": "uint256"
        }
      ],
      "stateMutability": "view",
      "type": "function"
    },
    {
      "inputs": [
        {
          "internalType": "string",
          "name": "_productType",
          "type": "string"
        }
      ],
      "name": "createBatch",
      "outputs": [
        {
          "internalType": "uint256",
          "name": "",
          "type": "uint256"
        }
      ],
      "stateMutability": "nonpayable",
      "type": "function"
    },
    {
      "inputs": [
        {
          "internalType": "uint256",
          "name": "_batchId",
          "type": "uint256"
        }
      ],
      "name": "getBatch",
      "outputs": [
        {
          "internalType": "uint256",
          "name": "",
          "type": "uint256"
        },
        {
          "internalType": "address",
          "name": "",
          "type": "address"
        },
        {
          "internalType": "string",
          "name": "",
          "type": "string"
        },
        {
          "internalType": "uint256",
          "name": "",
          "type": "uint256"
        }
      ],
      "stateMutability": "view",
      "type": "function"
    },
    {
      "inputs": [
        {
          "internalType": "uint256",
          "name": "_batchId",
          "type": "uint256"
        },
        {
          "internalType": "uint256",
          "name": "_index",
          "type": "uint256"
        }
      ],
      "name": "getBatchEvent",
      "outputs": [
        {
          "components": [
            {
              "internalType": "enum SimpleSupplyChain.EventType",
              "name": "eventType",
              "type": "uint8"
            },
            {
              "internalType": "address",
              "name": "actor",
              "type": "address"
            },
            {
              "internalType": "uint256",
              "name": "timestamp",
              "type": "uint256"
            },
            {
              "internalType": "string",
              "name": "dataHash",
              "type": "string"
            }
          ],
          "internalType": "struct SimpleSupplyChain.Event",
          "name": "",
          "type": "tuple"
        }
      ],
      "stateMutability": "view",
      "type": "function"
    },
    {
      "inputs": [
        {
          "internalType": "uint256",
          "name": "_batchId",
          "type": "uint256"
        }
      ],
      "name": "getBatchHistoryCount",
      "outputs": [
        {
          "internalType": "uint256",
          "name": "",
          "type": "uint256"
        }
      ],
      "stateMutability": "view",
      "type": "function"
    },
    {
      "inputs": [],
      "name": "nextBatchId",
      "outputs": [
        {
          "internalType": "uint256",
          "name": "",
          "type": "uint256"
        }
      ],
      "stateMutability": "view",
      "type": "function"
    },
    {
      "inputs": [
        {
          "internalType": "uint256",
          "name": "_batchId",
          "type": "uint256"
        },
        {
          "internalType": "enum SimpleSupplyChain.EventType",
          "name": "_eventType",
          "type": "uint8"
        },
        {
          "internalType": "string",
          "name": "_dataHash",
          "type": "string"
        }
      ],
      "name": "recordEvent",
      "outputs": [],
      "stateMutability": "nonpayable",
      "type": "function"
    }
  ],
  "bytecode": "0x60806040526001805534801561001457600080fd5b50610b62806100246000396000f3fe608060405234801561001057600080fd5b506004361061007d5760003560e01c80638462a7f81161005b5780638462a7f8146100f057806392f82abd146100f9578063b32c4d8d1461010c578063e78c317e1461011f57600080fd5b80631f9b180d146100825780632b2ce593146100975780635ac44282146100cd575b600080fd5b610095610090366004610794565b61013f565b005b6100ba6100a53660046107f1565b60009081526020819052604090206004015490565b6040519081526020015b60405180910390f35b6100e06100db3660046107f1565b6102c0565b6040516100c49493929190610850565b6100ba60015481565b6100ba61010736600461088b565b6103e3565b6100e061011a3660046107f1565b610485565b61013261012d3660046108c8565b610540565b6040516100c49190610922565b6000838152602081905260409020600101546001600160a01b03166101a25760405162461bcd60e51b815260206004820152601460248201527310985d18da08191bd95cc81b9bdd08195e1a5cdd60621b60448201526064015b60405180910390fd5b600060405180608001604052808460048111156101c1576101c16108ea565b81523360208083019190915242604080840191909152606090920185905260008781528082529182206004908101805460018181018355918552929093208451600390930201805494955085949093849260ff1990921691849081111561022a5761022a6108ea565b0217905550602082015181546001600160a01b0390911661010002610100600160a81b0319909116178155604082015160018201556060820151600282019061027390826109f5565b505050336001600160a01b0316847fa931714e3ce81b89b2e5f62d6ef39dc4cc501d54da58d539fdfbf12aaa4c456485856040516102b2929190610ab5565b60405180910390a350505050565b6000818152602081905260408120600181015482916060918391906001600160a01b03166103275760405162461bcd60e51b815260206004820152601460248201527310985d18da08191bd95cc81b9bdd08195e1a5cdd60621b6044820152606401610199565b8054600182015460038301546002840180546001600160a01b039093169290919082906103539061096a565b80601f016020809104026020016040519081016040528092919081815260200182805461037f9061096a565b80156103cc5780601f106103a1576101008083540402835291602001916103cc565b820191906000526020600020905b8154815290600101906020018083116103af57829003601f168201915b505050505091509450945094509450509193509193565b600180546000918190836103f683610ad5565b909155505060008181526020819052604090208181556001810180546001600160a01b0319163317905560020161042d84826109f5565b50600081815260208190526040908190204260039091015551339082907f455fe5771863ad206137a00ecd2103bf528ba811090f3610fb2045972787ea4490610477908790610afc565b60405180910390a392915050565b60006020819052908152604090208054600182015460028301805492936001600160a01b03909216926104b79061096a565b80601f01602080910402602001604051908101604052809291908181526020018280546104e39061096a565b80156105305780601f1061050557610100808354040283529160200191610530565b820191906000526020600020905b81548152906001019060200180831161051357829003601f168201915b5050505050908060030154905084565b61056a60408051608081019091528060008152600060208201819052604082015260609081015290565b60008381526020819052604090206004015482106105ca5760405162461bcd60e51b815260206004820152601960248201527f4576656e7420696e646578206f7574206f6620626f756e6473000000000000006044820152606401610199565b60008381526020819052604090206004018054839081106105ed576105ed610b16565b6000918252602090912060408051608081019091526003909202018054829060ff166004811115610620576106206108ea565b6004811115610631576106316108ea565b8152815461010090046001600160a01b03166020820152600182015460408201526002820180546060909201916106679061096a565b80601f01602080910402602001604051908101604052809291908181526020018280546106939061096a565b80156106e05780601f106106b5576101008083540402835291602001916106e0565b820191906000526020600020905b8154815290600101906020018083116106c357829003601f168201915b505050505081525050905092915050565b634e487b7160e01b600052604160045260246000fd5b600082601f83011261071857600080fd5b813567ffffffffffffffff80821115610733576107336106f1565b604051601f8301601f19908116603f0116810190828211818310171561075b5761075b6106f1565b8160405283815286602085880101111561077457600080fd5b836020870160208301376000602085830101528094505050505092915050565b6000806000606084860312156107a957600080fd5b833592506020840135600581106107bf57600080fd5b9150604084013567ffffffffffffffff8111156107db57600080fd5b6107e786828701610707565b9150509250925092565b60006020828403121561080357600080fd5b5035919050565b6000815180845260005b8181101561083057602081850181015186830182015201610814565b506000602082860101526020601f19601f83011685010191505092915050565b8481526001600160a01b038416602082015260806040820181905260009061087a9083018561080a565b905082606083015295945050505050565b60006020828403121561089d57600080fd5b813567ffffffffffffffff8111156108b457600080fd5b6108c084828501610707565b949350505050565b600080604083850312156108db57600080fd5b50508035926020909101359150565b634e487b7160e01b600052602160045260246000fd5b6005811061091e57634e487b7160e01b600052602160045260246000fd5b9052565b60208152610934602082018351610900565b60018060a01b03602083015116604082015260408201516060820152600060608301516080808401526108c060a084018261080a565b600181811c9082168061097e57607f821691505b60208210810361099e57634e487b7160e01b600052602260045260246000fd5b50919050565b601f8211156109f0576000816000526020600020601f850160051c810160208610156109cd5750805b601f850160051c820191505b818110156109ec578281556001016109d9565b5050505b505050565b815167ffffffffffffffff811115610a0f57610a0f6106f1565b610a2381610a1d845461096a565b846109a4565b602080601f831160018114610a585760008415610a405750858301515b600019600386901b1c1916600185901b1785556109ec565b600085815260208120601f198616915b82811015610a8757888601518255948401946001909101908401610a68565b5085821015610aa55787850151600019600388901b60f8161c191681555b5050505050600190811b01905550565b610abf8184610900565b6040602082015260006108c0604083018461080a565b600060018201610af557634e487b7160e01b600052601160045260246000fd5b5060010190565b602081526000610b0f602083018461080a565b9392505050565b634e487b7160e01b600052603260045260246000fdfea2646970667358221220fcc936b8c91b35af6664d26167b0143a31cae15d1f58d7765a85e3750e0fecaf64736f6c63430008180033",
  "linkReferences": {},
  "deployedLinkReferences": {}
}